{
  "_format": "hh-sol-artifact-1",
  "contractName": "EagerBeaver",
  "sourceName": "contracts/EagerBeaver.sol",
  "abi": [
    {
      "inputs": [],
      "stateMutability": "nonpayable",
      "type": "constructor"
    },
    {
      "anonymous": false,
      "inputs": [
        {
          "indexed": true,
          "internalType": "address",
          "name": "owner",
          "type": "address"
        },
        {
          "indexed": true,
          "internalType": "address",
          "name": "approved",
          "type": "address"
        },
        {
          "indexed": true,
          "internalType": "uint256",
          "name": "tokenId",
          "type": "uint256"
        }
      ],
      "name": "Approval",
      "type": "event"
    },
    {
      "anonymous": false,
      "inputs": [
        {
          "indexed": true,
          "internalType": "address",
          "name": "owner",
          "type": "address"
        },
        {
          "indexed": true,
          "internalType": "address",
          "name": "operator",
          "type": "address"
        },
        {
          "indexed": false,
          "internalType": "bool",
          "name": "approved",
          "type": "bool"
        }
      ],
      "name": "ApprovalForAll",
      "type": "event"
    },
    {
      "anonymous": false,
      "inputs": [
        {
          "indexed": true,
          "internalType": "address",
          "name": "previousOwner",
          "type": "address"
        },
        {
          "indexed": true,
          "internalType": "address",
          "name": "newOwner",
          "type": "address"
        }
      ],
      "name": "OwnershipTransferred",
      "type": "event"
    },
    {
      "anonymous": false,
      "inputs": [
        {
          "indexed": true,
          "internalType": "address",
          "name": "from",
          "type": "address"
        },
        {
          "indexed": true,
          "internalType": "address",
          "name": "to",
          "type": "address"
        },
        {
          "indexed": true,
          "internalType": "uint256",
          "name": "tokenId",
          "type": "uint256"
        }
      ],
      "name": "Transfer",
      "type": "event"
    },
    {
      "stateMutability": "payable",
      "type": "fallback"
    },
    {
      "inputs": [],
      "name": "_merkleRoot",
      "outputs": [
        {
          "internalType": "bytes32",
          "name": "",
          "type": "bytes32"
        }
      ],
      "stateMutability": "view",
      "type": "function"
    },
    {
      "inputs": [],
      "name": "_paused",
      "outputs": [
        {
          "internalType": "bool",
          "name": "",
          "type": "bool"
        }
      ],
      "stateMutability": "view",
      "type": "function"
    },
    {
      "inputs": [],
      "name": "_price",
      "outputs": [
        {
          "internalType": "uint256",
          "name": "",
          "type": "uint256"
        }
      ],
      "stateMutability": "view",
      "type": "function"
    },
    {
      "inputs": [],
      "name": "_revealed",
      "outputs": [
        {
          "internalType": "bool",
          "name": "",
          "type": "bool"
        }
      ],
      "stateMutability": "view",
      "type": "function"
    },
    {
      "inputs": [
        {
          "internalType": "address",
          "name": "to",
          "type": "address"
        },
        {
          "internalType": "uint256",
          "name": "tokenId",
          "type": "uint256"
        }
      ],
      "name": "approve",
      "outputs": [],
      "stateMutability": "nonpayable",
      "type": "function"
    },
    {
      "inputs": [
        {
          "internalType": "address",
          "name": "owner",
          "type": "address"
        }
      ],
      "name": "balanceOf",
      "outputs": [
        {
          "internalType": "uint256",
          "name": "",
          "type": "uint256"
        }
      ],
      "stateMutability": "view",
      "type": "function"
    },
    {
      "inputs": [],
      "name": "currentId",
      "outputs": [
        {
          "internalType": "uint256",
          "name": "_value",
          "type": "uint256"
        }
      ],
      "stateMutability": "view",
      "type": "function"
    },
    {
      "inputs": [
        {
          "internalType": "uint256",
          "name": "tokenId",
          "type": "uint256"
        }
      ],
      "name": "getApproved",
      "outputs": [
        {
          "internalType": "address",
          "name": "",
          "type": "address"
        }
      ],
      "stateMutability": "view",
      "type": "function"
    },
    {
      "inputs": [
        {
          "internalType": "address",
          "name": "owner",
          "type": "address"
        },
        {
          "internalType": "address",
          "name": "operator",
          "type": "address"
        }
      ],
      "name": "isApprovedForAll",
      "outputs": [
        {
          "internalType": "bool",
          "name": "",
          "type": "bool"
        }
      ],
      "stateMutability": "view",
      "type": "function"
    },
    {
      "inputs": [],
      "name": "maxTokenIds",
      "outputs": [
        {
          "internalType": "uint256",
          "name": "",
          "type": "uint256"
        }
      ],
      "stateMutability": "view",
      "type": "function"
    },
    {
      "inputs": [],
      "name": "mint",
      "outputs": [
        {
          "internalType": "uint256",
          "name": "",
          "type": "uint256"
        }
      ],
      "stateMutability": "payable",
      "type": "function"
    },
    {
      "inputs": [],
      "name": "name",
      "outputs": [
        {
          "internalType": "string",
          "name": "",
          "type": "string"
        }
      ],
      "stateMutability": "view",
      "type": "function"
    },
    {
      "inputs": [],
      "name": "owner",
      "outputs": [
        {
          "internalType": "address",
          "name": "",
          "type": "address"
        }
      ],
      "stateMutability": "view",
      "type": "function"
    },
    {
      "inputs": [
        {
          "internalType": "uint256",
          "name": "tokenId",
          "type": "uint256"
        }
      ],
      "name": "ownerOf",
      "outputs": [
        {
          "internalType": "address",
          "name": "",
          "type": "address"
        }
      ],
      "stateMutability": "view",
      "type": "function"
    },
    {
      "inputs": [
        {
          "internalType": "bytes32[]",
          "name": "_merkleProof",
          "type": "bytes32[]"
        }
      ],
      "name": "presaleMint",
      "outputs": [
        {
          "internalType": "uint256",
          "name": "",
          "type": "uint256"
        }
      ],
      "stateMutability": "payable",
      "type": "function"
    },
    {
      "inputs": [],
      "name": "renounceOwnership",
      "outputs": [],
      "stateMutability": "nonpayable",
      "type": "function"
    },
    {
      "inputs": [
        {
          "internalType": "string",
          "name": "revealedBaseURI",
          "type": "string"
        }
      ],
      "name": "revealCollection",
      "outputs": [],
      "stateMutability": "nonpayable",
      "type": "function"
    },
    {
      "inputs": [
        {
          "internalType": "address",
          "name": "from",
          "type": "address"
        },
        {
          "internalType": "address",
          "name": "to",
          "type": "address"
        },
        {
          "internalType": "uint256",
          "name": "tokenId",
          "type": "uint256"
        }
      ],
      "name": "safeTransferFrom",
      "outputs": [],
      "stateMutability": "nonpayable",
      "type": "function"
    },
    {
      "inputs": [
        {
          "internalType": "address",
          "name": "from",
          "type": "address"
        },
        {
          "internalType": "address",
          "name": "to",
          "type": "address"
        },
        {
          "internalType": "uint256",
          "name": "tokenId",
          "type": "uint256"
        },
        {
          "internalType": "bytes",
          "name": "_data",
          "type": "bytes"
        }
      ],
      "name": "safeTransferFrom",
      "outputs": [],
      "stateMutability": "nonpayable",
      "type": "function"
    },
    {
      "inputs": [
        {
          "internalType": "address",
          "name": "operator",
          "type": "address"
        },
        {
          "internalType": "bool",
          "name": "approved",
          "type": "bool"
        }
      ],
      "name": "setApprovalForAll",
      "outputs": [],
      "stateMutability": "nonpayable",
      "type": "function"
    },
    {
      "inputs": [
        {
          "internalType": "bool",
          "name": "val",
          "type": "bool"
        }
      ],
      "name": "setPaused",
      "outputs": [],
      "stateMutability": "nonpayable",
      "type": "function"
    },
    {
      "inputs": [
        {
          "internalType": "bytes4",
          "name": "interfaceId",
          "type": "bytes4"
        }
      ],
      "name": "supportsInterface",
      "outputs": [
        {
          "internalType": "bool",
          "name": "",
          "type": "bool"
        }
      ],
      "stateMutability": "view",
      "type": "function"
    },
    {
      "inputs": [],
      "name": "symbol",
      "outputs": [
        {
          "internalType": "string",
          "name": "",
          "type": "string"
        }
      ],
      "stateMutability": "view",
      "type": "function"
    },
    {
      "inputs": [],
      "name": "timeToEndPresale",
      "outputs": [
        {
          "internalType": "uint256",
          "name": "",
          "type": "uint256"
        }
      ],
      "stateMutability": "view",
      "type": "function"
    },
    {
      "inputs": [],
      "name": "timeToStartPresale",
      "outputs": [
        {
          "internalType": "uint256",
          "name": "",
          "type": "uint256"
        }
      ],
      "stateMutability": "view",
      "type": "function"
    },
    {
      "inputs": [
        {
          "internalType": "uint256",
          "name": "index",
          "type": "uint256"
        }
      ],
      "name": "tokenByIndex",
      "outputs": [
        {
          "internalType": "uint256",
          "name": "",
          "type": "uint256"
        }
      ],
      "stateMutability": "view",
      "type": "function"
    },
    {
      "inputs": [],
      "name": "tokenCount",
      "outputs": [
        {
          "internalType": "uint256",
          "name": "_value",
          "type": "uint256"
        }
      ],
      "stateMutability": "view",
      "type": "function"
    },
    {
      "inputs": [
        {
          "internalType": "address",
          "name": "owner",
          "type": "address"
        },
        {
          "internalType": "uint256",
          "name": "index",
          "type": "uint256"
        }
      ],
      "name": "tokenOfOwnerByIndex",
      "outputs": [
        {
          "internalType": "uint256",
          "name": "",
          "type": "uint256"
        }
      ],
      "stateMutability": "view",
      "type": "function"
    },
    {
      "inputs": [
        {
          "internalType": "uint256",
          "name": "tokenId",
          "type": "uint256"
        }
      ],
      "name": "tokenURI",
      "outputs": [
        {
          "internalType": "string",
          "name": "",
          "type": "string"
        }
      ],
      "stateMutability": "view",
      "type": "function"
    },
    {
      "inputs": [],
      "name": "totalSupply",
      "outputs": [
        {
          "internalType": "uint256",
          "name": "",
          "type": "uint256"
        }
      ],
      "stateMutability": "view",
      "type": "function"
    },
    {
      "inputs": [
        {
          "internalType": "address",
          "name": "from",
          "type": "address"
        },
        {
          "internalType": "address",
          "name": "to",
          "type": "address"
        },
        {
          "internalType": "uint256",
          "name": "tokenId",
          "type": "uint256"
        }
      ],
      "name": "transferFrom",
      "outputs": [],
      "stateMutability": "nonpayable",
      "type": "function"
    },
    {
      "inputs": [
        {
          "internalType": "address",
          "name": "newOwner",
          "type": "address"
        }
      ],
      "name": "transferOwnership",
      "outputs": [],
      "stateMutability": "nonpayable",
      "type": "function"
    },
    {
      "inputs": [],
      "name": "withdraw",
      "outputs": [],
      "stateMutability": "nonpayable",
      "type": "function"
    },
    {
      "stateMutability": "payable",
      "type": "receive"
    }
  ],
  "bytecode": "0x60806040527f7e51034f82762fa3fa646105de61d65a8bb6997b76bbf98d66b9c459ab63d33360001b600e5560405180608001604052806060815260200162005d7b60609139601090805190602001906200005c92919062000faa565b50670214e8348c4f00006011556107e6601355636232dc7060145563623411d06015553480156200008c57600080fd5b506040518060400160405280600b81526020017f45616765724265617665720000000000000000000000000000000000000000008152506040518060400160405280600281526020017f454200000000000000000000000000000000000000000000000000000000000081525081600090805190602001906200011192919062000faa565b5080600190805190602001906200012a92919062000faa565b5050506200014d62000141620002fd60201b60201c565b6200030560201b60201c565b620001606105f4620003cb60201b60201c565b62000173610451620003cb60201b60201c565b6200018661021d620003cb60201b60201c565b6200019961019f620003cb60201b60201c565b620001ac610792620003cb60201b60201c565b620001bf61037f620003cb60201b60201c565b620001d261070f620003cb60201b60201c565b620001e56107cf620003cb60201b60201c565b620001f8610749620003cb60201b60201c565b6200020b61054d620003cb60201b60201c565b6200021e61065b620003cb60201b60201c565b620002316105d0620003cb60201b60201c565b620002446105ce620003cb60201b60201c565b620002576105e3620003cb60201b60201c565b6200026a6103c7620003cb60201b60201c565b6200027d6103d3620003cb60201b60201c565b620002906102e8620003cb60201b60201c565b620002a36101ba620003cb60201b60201c565b620002b66107e0620003cb60201b60201c565b620002c96106bb620003cb60201b60201c565b620002dc6105b7620003cb60201b60201c565b6001601260006101000a81548160ff02191690831515021790555062001670565b600033905090565b6000600a60009054906101000a900473ffffffffffffffffffffffffffffffffffffffff16905081600a60006101000a81548173ffffffffffffffffffffffffffffffffffffffff021916908373ffffffffffffffffffffffffffffffffffffffff1602179055508173ffffffffffffffffffffffffffffffffffffffff168173ffffffffffffffffffffffffffffffffffffffff167f8be0079c531659141344cd1fd0a4f28419497f9722a3daafe3b4186f6b6457e060405160405180910390a35050565b620003db620002fd60201b60201c565b73ffffffffffffffffffffffffffffffffffffffff1662000401620004ed60201b60201c565b73ffffffffffffffffffffffffffffffffffffffff16146200045a576040517f08c379a00000000000000000000000000000000000000000000000000000000081526004016200045190620012c6565b60405180910390fd5b601260009054906101000a900460ff1615620004ad576040517f08c379a0000000000000000000000000000000000000000000000000000000008152600401620004a490620012e8565b60405180910390fd5b620004c4600b6200051760201b620019251760201c565b620004ea739ed3a670627dca21dad982d47bfd8a09e69f52ec826200052d60201b60201c565b50565b6000600a60009054906101000a900473ffffffffffffffffffffffffffffffffffffffff16905090565b6001816000016000828254019250508190555050565b6200054f8282604051806020016040528060008152506200055360201b60201c565b5050565b620005658383620005c160201b60201c565b6200057a6000848484620007bb60201b60201c565b620005bc576040517f08c379a0000000000000000000000000000000000000000000000000000000008152600401620005b3906200123e565b60405180910390fd5b505050565b600073ffffffffffffffffffffffffffffffffffffffff168273ffffffffffffffffffffffffffffffffffffffff16141562000634576040517f08c379a00000000000000000000000000000000000000000000000000000000081526004016200062b90620012a4565b60405180910390fd5b62000645816200097560201b60201c565b1562000688576040517f08c379a00000000000000000000000000000000000000000000000000000000081526004016200067f9062001260565b60405180910390fd5b6200069c60008383620009e160201b60201c565b6001600360008473ffffffffffffffffffffffffffffffffffffffff1673ffffffffffffffffffffffffffffffffffffffff1681526020019081526020016000206000828254620006ee919062001337565b92505081905550816002600083815260200190815260200160002060006101000a81548173ffffffffffffffffffffffffffffffffffffffff021916908373ffffffffffffffffffffffffffffffffffffffff160217905550808273ffffffffffffffffffffffffffffffffffffffff16600073ffffffffffffffffffffffffffffffffffffffff167fddf252ad1be2c89b69c2b068fc378daa952ba7f163c4a11628f55a4df523b3ef60405160405180910390a4620007b76000838362000b2860201b60201c565b5050565b6000620007e98473ffffffffffffffffffffffffffffffffffffffff1662000b2d60201b6200193b1760201c565b1562000968578373ffffffffffffffffffffffffffffffffffffffff1663150b7a026200081b620002fd60201b60201c565b8786866040518563ffffffff1660e01b81526004016200083f9493929190620011ea565b602060405180830381600087803b1580156200085a57600080fd5b505af19250505080156200088e57506040513d601f19601f820116820180604052508101906200088b919062001071565b60015b62000917573d8060008114620008c1576040519150601f19603f3d011682016040523d82523d6000602084013e620008c6565b606091505b506000815114156200090f576040517f08c379a000000000000000000000000000000000000000000000000000000000815260040162000906906200123e565b60405180910390fd5b805181602001fd5b63150b7a0260e01b7bffffffffffffffffffffffffffffffffffffffffffffffffffffffff1916817bffffffffffffffffffffffffffffffffffffffffffffffffffffffff1916149150506200096d565b600190505b949350505050565b60008073ffffffffffffffffffffffffffffffffffffffff166002600084815260200190815260200160002060009054906101000a900473ffffffffffffffffffffffffffffffffffffffff1673ffffffffffffffffffffffffffffffffffffffff1614159050919050565b620009f983838362000b5060201b6200195e1760201c565b600073ffffffffffffffffffffffffffffffffffffffff168373ffffffffffffffffffffffffffffffffffffffff16141562000a465762000a408162000b5560201b60201c565b62000a8e565b8173ffffffffffffffffffffffffffffffffffffffff168373ffffffffffffffffffffffffffffffffffffffff161462000a8d5762000a8c838262000b9e60201b60201c565b5b5b600073ffffffffffffffffffffffffffffffffffffffff168273ffffffffffffffffffffffffffffffffffffffff16141562000adb5762000ad58162000d1b60201b60201c565b62000b23565b8273ffffffffffffffffffffffffffffffffffffffff168273ffffffffffffffffffffffffffffffffffffffff161462000b225762000b21828262000e6360201b60201c565b5b5b505050565b505050565b6000808273ffffffffffffffffffffffffffffffffffffffff163b119050919050565b505050565b6008805490506009600083815260200190815260200160002081905550600881908060018154018082558091505060019003906000526020600020016000909190919091505550565b6000600162000bb88462000eef60201b6200118e1760201c565b62000bc4919062001394565b905060006007600084815260200190815260200160002054905081811462000caa576000600660008673ffffffffffffffffffffffffffffffffffffffff1673ffffffffffffffffffffffffffffffffffffffff168152602001908152602001600020600084815260200190815260200160002054905080600660008773ffffffffffffffffffffffffffffffffffffffff1673ffffffffffffffffffffffffffffffffffffffff168152602001908152602001600020600084815260200190815260200160002081905550816007600083815260200190815260200160002081905550505b6007600084815260200190815260200160002060009055600660008573ffffffffffffffffffffffffffffffffffffffff1673ffffffffffffffffffffffffffffffffffffffff16815260200190815260200160002060008381526020019081526020016000206000905550505050565b6000600160088054905062000d31919062001394565b905060006009600084815260200190815260200160002054905060006008838154811062000d88577f4e487b7100000000000000000000000000000000000000000000000000000000600052603260045260246000fd5b90600052602060002001549050806008838154811062000dd1577f4e487b7100000000000000000000000000000000000000000000000000000000600052603260045260246000fd5b90600052602060002001819055508160096000838152602001908152602001600020819055506009600085815260200190815260200160002060009055600880548062000e47577f4e487b7100000000000000000000000000000000000000000000000000000000600052603160045260246000fd5b6001900381819060005260206000200160009055905550505050565b600062000e7b8362000eef60201b6200118e1760201c565b905081600660008573ffffffffffffffffffffffffffffffffffffffff1673ffffffffffffffffffffffffffffffffffffffff168152602001908152602001600020600083815260200190815260200160002081905550806007600084815260200190815260200160002081905550505050565b60008073ffffffffffffffffffffffffffffffffffffffff168273ffffffffffffffffffffffffffffffffffffffff16141562000f63576040517f08c379a000000000000000000000000000000000000000000000000000000000815260040162000f5a9062001282565b60405180910390fd5b600360008373ffffffffffffffffffffffffffffffffffffffff1673ffffffffffffffffffffffffffffffffffffffff168152602001908152602001600020549050919050565b82805462000fb8906200146f565b90600052602060002090601f01602090048101928262000fdc576000855562001028565b82601f1062000ff757805160ff191683800117855562001028565b8280016001018555821562001028579182015b82811115620010275782518255916020019190600101906200100a565b5b5090506200103791906200103b565b5090565b5b80821115620010565760008160009055506001016200103c565b5090565b6000815190506200106b8162001656565b92915050565b6000602082840312156200108457600080fd5b600062001094848285016200105a565b91505092915050565b620010a881620013cf565b82525050565b6000620010bb826200130a565b620010c7818562001315565b9350620010d981856020860162001439565b620010e48162001503565b840191505092915050565b6000620010fe60328362001326565b91506200110b8262001514565b604082019050919050565b600062001125601c8362001326565b9150620011328262001563565b602082019050919050565b60006200114c602a8362001326565b915062001159826200158c565b604082019050919050565b60006200117360208362001326565b91506200118082620015db565b602082019050919050565b60006200119a60208362001326565b9150620011a78262001604565b602082019050919050565b6000620011c160198362001326565b9150620011ce826200162d565b602082019050919050565b620011e4816200142f565b82525050565b60006080820190506200120160008301876200109d565b6200121060208301866200109d565b6200121f6040830185620011d9565b8181036060830152620012338184620010ae565b905095945050505050565b600060208201905081810360008301526200125981620010ef565b9050919050565b600060208201905081810360008301526200127b8162001116565b9050919050565b600060208201905081810360008301526200129d816200113d565b9050919050565b60006020820190508181036000830152620012bf8162001164565b9050919050565b60006020820190508181036000830152620012e1816200118b565b9050919050565b600060208201905081810360008301526200130381620011b2565b9050919050565b600081519050919050565b600082825260208201905092915050565b600082825260208201905092915050565b600062001344826200142f565b915062001351836200142f565b9250827fffffffffffffffffffffffffffffffffffffffffffffffffffffffffffffffff03821115620013895762001388620014a5565b5b828201905092915050565b6000620013a1826200142f565b9150620013ae836200142f565b925082821015620013c457620013c3620014a5565b5b828203905092915050565b6000620013dc826200140f565b9050919050565b60007fffffffff0000000000000000000000000000000000000000000000000000000082169050919050565b600073ffffffffffffffffffffffffffffffffffffffff82169050919050565b6000819050919050565b60005b83811015620014595780820151818401526020810190506200143c565b8381111562001469576000848401525b50505050565b600060028204905060018216806200148857607f821691505b602082108114156200149f576200149e620014d4565b5b50919050565b7f4e487b7100000000000000000000000000000000000000000000000000000000600052601160045260246000fd5b7f4e487b7100000000000000000000000000000000000000000000000000000000600052602260045260246000fd5b6000601f19601f8301169050919050565b7f4552433732313a207472616e7366657220746f206e6f6e20455243373231526560008201527f63656976657220696d706c656d656e7465720000000000000000000000000000602082015250565b7f4552433732313a20746f6b656e20616c7265616479206d696e74656400000000600082015250565b7f4552433732313a2062616c616e636520717565727920666f7220746865207a6560008201527f726f206164647265737300000000000000000000000000000000000000000000602082015250565b7f4552433732313a206d696e7420746f20746865207a65726f2061646472657373600082015250565b7f4f776e61626c653a2063616c6c6572206973206e6f7420746865206f776e6572600082015250565b7f436f6e74726163742063757272656e746c792070617573656400000000000000600082015250565b6200166181620013e3565b81146200166d57600080fd5b50565b6146fb80620016806000396000f3fe6080604052600436106101f25760003560e01c80635f7696211161010d5780639f181b5e116100a0578063c87b56dd1161006f578063c87b56dd146106d8578063e00dd16114610715578063e985e9c514610740578063edc0c72c1461077d578063f2fde38b146107ad576101f9565b80639f181b5e14610630578063a22cb4651461065b578063b645355814610684578063b88d4fde146106af576101f9565b8063715018a6116100dc578063715018a61461059857806385c36d10146105af5780638da5cb5b146105da57806395d89b4114610605576101f9565b80635f769621146104c85780636352211e146104f35780636ebeac851461053057806370a082311461055b576101f9565b8063235b6ea1116101855780633ccfd60b116101545780633ccfd60b1461042257806342842e0e146104395780634f6ccce71461046257806350179bae1461049f576101f9565b8063235b6ea11461036657806323b872dd146103915780632f745c59146103ba5780632fc37ab2146103f7576101f9565b80631249c58b116101c15780631249c58b146102c957806316c38b3c146102e757806316c61ccc1461031057806318160ddd1461033b576101f9565b806301ffc9a7146101fb57806306fdde0314610238578063081812fc14610263578063095ea7b3146102a0576101f9565b366101f957005b005b34801561020757600080fd5b50610222600480360381019061021d9190613189565b6107d6565b60405161022f91906137d5565b60405180910390f35b34801561024457600080fd5b5061024d610850565b60405161025a919061380b565b60405180910390f35b34801561026f57600080fd5b5061028a6004803603810190610285919061321c565b6108e2565b604051610297919061376e565b60405180910390f35b3480156102ac57600080fd5b506102c760048036038101906102c291906130df565b610967565b005b6102d1610a7f565b6040516102de9190613b6d565b60405180910390f35b3480156102f357600080fd5b5061030e60048036038101906103099190613160565b610bff565b005b34801561031c57600080fd5b50610325610c98565b60405161033291906137d5565b60405180910390f35b34801561034757600080fd5b50610350610cab565b60405161035d9190613b6d565b60405180910390f35b34801561037257600080fd5b5061037b610cbc565b6040516103889190613b6d565b60405180910390f35b34801561039d57600080fd5b506103b860048036038101906103b39190612fd9565b610cc2565b005b3480156103c657600080fd5b506103e160048036038101906103dc91906130df565b610d22565b6040516103ee9190613b6d565b60405180910390f35b34801561040357600080fd5b5061040c610dc7565b60405161041991906137f0565b60405180910390f35b34801561042e57600080fd5b50610437610dcd565b005b34801561044557600080fd5b50610460600480360381019061045b9190612fd9565b610f0b565b005b34801561046e57600080fd5b506104896004803603810190610484919061321c565b610f2b565b6040516104969190613b6d565b60405180910390f35b3480156104ab57600080fd5b506104c660048036038101906104c191906131db565b610fc2565b005b3480156104d457600080fd5b506104dd6110c3565b6040516104ea9190613b6d565b60405180910390f35b3480156104ff57600080fd5b5061051a6004803603810190610515919061321c565b6110c9565b604051610527919061376e565b60405180910390f35b34801561053c57600080fd5b5061054561117b565b60405161055291906137d5565b60405180910390f35b34801561056757600080fd5b50610582600480360381019061057d9190612f74565b61118e565b60405161058f9190613b6d565b60405180910390f35b3480156105a457600080fd5b506105ad611246565b005b3480156105bb57600080fd5b506105c46112ce565b6040516105d19190613b6d565b60405180910390f35b3480156105e657600080fd5b506105ef6112d4565b6040516105fc919061376e565b60405180910390f35b34801561061157600080fd5b5061061a6112fe565b604051610627919061380b565b60405180910390f35b34801561063c57600080fd5b50610645611390565b6040516106529190613b6d565b60405180910390f35b34801561066757600080fd5b50610682600480360381019061067d91906130a3565b61139c565b005b34801561069057600080fd5b506106996113b2565b6040516106a69190613b6d565b60405180910390f35b3480156106bb57600080fd5b506106d660048036038101906106d19190613028565b6113b8565b005b3480156106e457600080fd5b506106ff60048036038101906106fa919061321c565b61141a565b60405161070c919061380b565b60405180910390f35b34801561072157600080fd5b5061072a61154a565b6040516107379190613b6d565b60405180910390f35b34801561074c57600080fd5b5061076760048036038101906107629190612f9d565b611556565b60405161077491906137d5565b60405180910390f35b6107976004803603810190610792919061311b565b6115ea565b6040516107a49190613b6d565b60405180910390f35b3480156107b957600080fd5b506107d460048036038101906107cf9190612f74565b61182d565b005b60007f780e9d63000000000000000000000000000000000000000000000000000000007bffffffffffffffffffffffffffffffffffffffffffffffffffffffff1916827bffffffffffffffffffffffffffffffffffffffffffffffffffffffff19161480610849575061084882611963565b5b9050919050565b60606000805461085f90613dd8565b80601f016020809104026020016040519081016040528092919081815260200182805461088b90613dd8565b80156108d85780601f106108ad576101008083540402835291602001916108d8565b820191906000526020600020905b8154815290600101906020018083116108bb57829003601f168201915b5050505050905090565b60006108ed82611a45565b61092c576040517f08c379a000000000000000000000000000000000000000000000000000000000815260040161092390613a4d565b60405180910390fd5b6004600083815260200190815260200160002060009054906101000a900473ffffffffffffffffffffffffffffffffffffffff169050919050565b6000610972826110c9565b90508073ffffffffffffffffffffffffffffffffffffffff168373ffffffffffffffffffffffffffffffffffffffff1614156109e3576040517f08c379a00000000000000000000000000000000000000000000000000000000081526004016109da90613acd565b60405180910390fd5b8073ffffffffffffffffffffffffffffffffffffffff16610a02611ab1565b73ffffffffffffffffffffffffffffffffffffffff161480610a315750610a3081610a2b611ab1565b611556565b5b610a70576040517f08c379a0000000000000000000000000000000000000000000000000000000008152600401610a67906139ad565b60405180910390fd5b610a7a8383611ab9565b505050565b6000601260029054906101000a900460ff1615610ad1576040517f08c379a0000000000000000000000000000000000000000000000000000000008152600401610ac890613aad565b60405180910390fd5b6015544211610b15576040517f08c379a0000000000000000000000000000000000000000000000000000000008152600401610b0c90613b4d565b60405180910390fd5b601354610b20610cab565b10610b60576040517f08c379a0000000000000000000000000000000000000000000000000000000008152600401610b579061398d565b60405180910390fd5b601154341015610ba5576040517f08c379a0000000000000000000000000000000000000000000000000000000008152600401610b9c906138cd565b60405180910390fd5b610baf600c611925565b610bb9600b611925565b5b610bcc610bc7600c611b72565b611a45565b15610be057610bdb600c611925565b610bba565b6000610bec600c611b72565b9050610bf83382611b80565b8091505090565b610c07611ab1565b73ffffffffffffffffffffffffffffffffffffffff16610c256112d4565b73ffffffffffffffffffffffffffffffffffffffff1614610c7b576040517f08c379a0000000000000000000000000000000000000000000000000000000008152600401610c7290613a6d565b60405180910390fd5b80601260026101000a81548160ff02191690831515021790555050565b601260029054906101000a900460ff1681565b6000610cb7600b611b72565b905090565b60115481565b610cd3610ccd611ab1565b82611b9e565b610d12576040517f08c379a0000000000000000000000000000000000000000000000000000000008152600401610d0990613aed565b60405180910390fd5b610d1d838383611c7c565b505050565b6000610d2d8361118e565b8210610d6e576040517f08c379a0000000000000000000000000000000000000000000000000000000008152600401610d659061382d565b60405180910390fd5b600660008473ffffffffffffffffffffffffffffffffffffffff1673ffffffffffffffffffffffffffffffffffffffff168152602001908152602001600020600083815260200190815260200160002054905092915050565b600e5481565b610dd5611ab1565b73ffffffffffffffffffffffffffffffffffffffff16610df36112d4565b73ffffffffffffffffffffffffffffffffffffffff1614610e49576040517f08c379a0000000000000000000000000000000000000000000000000000000008152600401610e4090613a6d565b60405180910390fd5b6000610e536112d4565b9050600047905060008273ffffffffffffffffffffffffffffffffffffffff1682604051610e8090613759565b60006040518083038185875af1925050503d8060008114610ebd576040519150601f19603f3d011682016040523d82523d6000602084013e610ec2565b606091505b5050905080610f06576040517f08c379a0000000000000000000000000000000000000000000000000000000008152600401610efd906138ed565b60405180910390fd5b505050565b610f26838383604051806020016040528060008152506113b8565b505050565b6000610f35611ee3565b8210610f76576040517f08c379a0000000000000000000000000000000000000000000000000000000008152600401610f6d90613b0d565b60405180910390fd5b60088281548110610fb0577f4e487b7100000000000000000000000000000000000000000000000000000000600052603260045260246000fd5b90600052602060002001549050919050565b610fca611ab1565b73ffffffffffffffffffffffffffffffffffffffff16610fe86112d4565b73ffffffffffffffffffffffffffffffffffffffff161461103e576040517f08c379a000000000000000000000000000000000000000000000000000000000815260040161103590613a6d565b60405180910390fd5b601260019054906101000a900460ff161561108e576040517f08c379a000000000000000000000000000000000000000000000000000000000815260040161108590613b2d565b60405180910390fd5b80600f90805190602001906110a4929190612d4e565b506001601260016101000a81548160ff02191690831515021790555050565b60135481565b6000806002600084815260200190815260200160002060009054906101000a900473ffffffffffffffffffffffffffffffffffffffff169050600073ffffffffffffffffffffffffffffffffffffffff168173ffffffffffffffffffffffffffffffffffffffff161415611172576040517f08c379a0000000000000000000000000000000000000000000000000000000008152600401611169906139ed565b60405180910390fd5b80915050919050565b601260019054906101000a900460ff1681565b60008073ffffffffffffffffffffffffffffffffffffffff168273ffffffffffffffffffffffffffffffffffffffff1614156111ff576040517f08c379a00000000000000000000000000000000000000000000000000000000081526004016111f6906139cd565b60405180910390fd5b600360008373ffffffffffffffffffffffffffffffffffffffff1673ffffffffffffffffffffffffffffffffffffffff168152602001908152602001600020549050919050565b61124e611ab1565b73ffffffffffffffffffffffffffffffffffffffff1661126c6112d4565b73ffffffffffffffffffffffffffffffffffffffff16146112c2576040517f08c379a00000000000000000000000000000000000000000000000000000000081526004016112b990613a6d565b60405180910390fd5b6112cc6000611ef0565b565b60145481565b6000600a60009054906101000a900473ffffffffffffffffffffffffffffffffffffffff16905090565b60606001805461130d90613dd8565b80601f016020809104026020016040519081016040528092919081815260200182805461133990613dd8565b80156113865780601f1061135b57610100808354040283529160200191611386565b820191906000526020600020905b81548152906001019060200180831161136957829003601f168201915b5050505050905090565b600b8060000154905081565b6113ae6113a7611ab1565b8383611fb6565b5050565b60155481565b6113c96113c3611ab1565b83611b9e565b611408576040517f08c379a00000000000000000000000000000000000000000000000000000000081526004016113ff90613aed565b60405180910390fd5b61141484848484612123565b50505050565b606061142582611a45565b611464576040517f08c379a000000000000000000000000000000000000000000000000000000000815260040161145b90613a8d565b60405180910390fd5b600061146e61217f565b9050601260019054906101000a900460ff16611517576010805461149190613dd8565b80601f01602080910402602001604051908101604052809291908181526020018280546114bd90613dd8565b801561150a5780601f106114df5761010080835404028352916020019161150a565b820191906000526020600020905b8154815290600101906020018083116114ed57829003601f168201915b5050505050915050611545565b8061152184612211565b60405160200161153292919061372a565b6040516020818303038152906040529150505b919050565b600c8060000154905081565b6000600560008473ffffffffffffffffffffffffffffffffffffffff1673ffffffffffffffffffffffffffffffffffffffff16815260200190815260200160002060008373ffffffffffffffffffffffffffffffffffffffff1673ffffffffffffffffffffffffffffffffffffffff16815260200190815260200160002060009054906101000a900460ff16905092915050565b6000601260029054906101000a900460ff161561163c576040517f08c379a000000000000000000000000000000000000000000000000000000000815260040161163390613aad565b60405180910390fd5b60003360405160200161164f919061370f565b6040516020818303038152906040528051906020012090506116b5848480806020026020016040519081016040528093929190818152602001838360200280828437600081840152601f19601f82011690508083019250505050505050600e54836123be565b6116f4576040517f08c379a00000000000000000000000000000000000000000000000000000000081526004016116eb90613a2d565b60405180910390fd5b6013546116ff610cab565b1061173f576040517f08c379a00000000000000000000000000000000000000000000000000000000081526004016117369061398d565b60405180910390fd5b600261174a3361118e565b1061178a576040517f08c379a00000000000000000000000000000000000000000000000000000000081526004016117819061394d565b60405180910390fd5b6011543410156117cf576040517f08c379a00000000000000000000000000000000000000000000000000000000081526004016117c6906138cd565b60405180910390fd5b6117d9600c611925565b6117e3600b611925565b5b6117f66117f1600c611b72565b611a45565b1561180a57611805600c611925565b6117e4565b6000611816600c611b72565b90506118223382611b80565b809250505092915050565b611835611ab1565b73ffffffffffffffffffffffffffffffffffffffff166118536112d4565b73ffffffffffffffffffffffffffffffffffffffff16146118a9576040517f08c379a00000000000000000000000000000000000000000000000000000000081526004016118a090613a6d565b60405180910390fd5b600073ffffffffffffffffffffffffffffffffffffffff168173ffffffffffffffffffffffffffffffffffffffff161415611919576040517f08c379a00000000000000000000000000000000000000000000000000000000081526004016119109061386d565b60405180910390fd5b61192281611ef0565b50565b6001816000016000828254019250508190555050565b6000808273ffffffffffffffffffffffffffffffffffffffff163b119050919050565b505050565b60007f80ac58cd000000000000000000000000000000000000000000000000000000007bffffffffffffffffffffffffffffffffffffffffffffffffffffffff1916827bffffffffffffffffffffffffffffffffffffffffffffffffffffffff19161480611a2e57507f5b5e139f000000000000000000000000000000000000000000000000000000007bffffffffffffffffffffffffffffffffffffffffffffffffffffffff1916827bffffffffffffffffffffffffffffffffffffffffffffffffffffffff1916145b80611a3e5750611a3d826123d5565b5b9050919050565b60008073ffffffffffffffffffffffffffffffffffffffff166002600084815260200190815260200160002060009054906101000a900473ffffffffffffffffffffffffffffffffffffffff1673ffffffffffffffffffffffffffffffffffffffff1614159050919050565b600033905090565b816004600083815260200190815260200160002060006101000a81548173ffffffffffffffffffffffffffffffffffffffff021916908373ffffffffffffffffffffffffffffffffffffffff160217905550808273ffffffffffffffffffffffffffffffffffffffff16611b2c836110c9565b73ffffffffffffffffffffffffffffffffffffffff167f8c5be1e5ebec7d5bd14f71427d1e84f3dd0314c0f7b2291e5b200ac8c7c3b92560405160405180910390a45050565b600081600001549050919050565b611b9a82826040518060200160405280600081525061243f565b5050565b6000611ba982611a45565b611be8576040517f08c379a0000000000000000000000000000000000000000000000000000000008152600401611bdf9061396d565b60405180910390fd5b6000611bf3836110c9565b90508073ffffffffffffffffffffffffffffffffffffffff168473ffffffffffffffffffffffffffffffffffffffff161480611c6257508373ffffffffffffffffffffffffffffffffffffffff16611c4a846108e2565b73ffffffffffffffffffffffffffffffffffffffff16145b80611c735750611c728185611556565b5b91505092915050565b8273ffffffffffffffffffffffffffffffffffffffff16611c9c826110c9565b73ffffffffffffffffffffffffffffffffffffffff1614611cf2576040517f08c379a0000000000000000000000000000000000000000000000000000000008152600401611ce99061388d565b60405180910390fd5b600073ffffffffffffffffffffffffffffffffffffffff168273ffffffffffffffffffffffffffffffffffffffff161415611d62576040517f08c379a0000000000000000000000000000000000000000000000000000000008152600401611d599061390d565b60405180910390fd5b611d6d83838361249a565b611d78600082611ab9565b6001600360008573ffffffffffffffffffffffffffffffffffffffff1673ffffffffffffffffffffffffffffffffffffffff1681526020019081526020016000206000828254611dc89190613ce4565b925050819055506001600360008473ffffffffffffffffffffffffffffffffffffffff1673ffffffffffffffffffffffffffffffffffffffff1681526020019081526020016000206000828254611e1f9190613c5d565b92505081905550816002600083815260200190815260200160002060006101000a81548173ffffffffffffffffffffffffffffffffffffffff021916908373ffffffffffffffffffffffffffffffffffffffff160217905550808273ffffffffffffffffffffffffffffffffffffffff168473ffffffffffffffffffffffffffffffffffffffff167fddf252ad1be2c89b69c2b068fc378daa952ba7f163c4a11628f55a4df523b3ef60405160405180910390a4611ede8383836125ae565b505050565b6000600880549050905090565b6000600a60009054906101000a900473ffffffffffffffffffffffffffffffffffffffff16905081600a60006101000a81548173ffffffffffffffffffffffffffffffffffffffff021916908373ffffffffffffffffffffffffffffffffffffffff1602179055508173ffffffffffffffffffffffffffffffffffffffff168173ffffffffffffffffffffffffffffffffffffffff167f8be0079c531659141344cd1fd0a4f28419497f9722a3daafe3b4186f6b6457e060405160405180910390a35050565b8173ffffffffffffffffffffffffffffffffffffffff168373ffffffffffffffffffffffffffffffffffffffff161415612025576040517f08c379a000000000000000000000000000000000000000000000000000000000815260040161201c9061392d565b60405180910390fd5b80600560008573ffffffffffffffffffffffffffffffffffffffff1673ffffffffffffffffffffffffffffffffffffffff16815260200190815260200160002060008473ffffffffffffffffffffffffffffffffffffffff1673ffffffffffffffffffffffffffffffffffffffff16815260200190815260200160002060006101000a81548160ff0219169083151502179055508173ffffffffffffffffffffffffffffffffffffffff168373ffffffffffffffffffffffffffffffffffffffff167f17307eab39ab6107e8899845ad3d59bd9653f200f220920489ca2b5937696c318360405161211691906137d5565b60405180910390a3505050565b61212e848484611c7c565b61213a848484846125b3565b612179576040517f08c379a00000000000000000000000000000000000000000000000000000000081526004016121709061384d565b60405180910390fd5b50505050565b6060600f805461218e90613dd8565b80601f01602080910402602001604051908101604052809291908181526020018280546121ba90613dd8565b80156122075780601f106121dc57610100808354040283529160200191612207565b820191906000526020600020905b8154815290600101906020018083116121ea57829003601f168201915b5050505050905090565b60606000821415612259576040518060400160405280600181526020017f300000000000000000000000000000000000000000000000000000000000000081525090506123b9565b600082905060005b6000821461228b57808061227490613e3b565b915050600a826122849190613cb3565b9150612261565b60008167ffffffffffffffff8111156122cd577f4e487b7100000000000000000000000000000000000000000000000000000000600052604160045260246000fd5b6040519080825280601f01601f1916602001820160405280156122ff5781602001600182028036833780820191505090505b5090505b600085146123b2576001826123189190613ce4565b9150600a856123279190613ea8565b60306123339190613c5d565b60f81b81838151811061236f577f4e487b7100000000000000000000000000000000000000000000000000000000600052603260045260246000fd5b60200101907effffffffffffffffffffffffffffffffffffffffffffffffffffffffffffff1916908160001a905350600a856123ab9190613cb3565b9450612303565b8093505050505b919050565b6000826123cb858461274a565b1490509392505050565b60007f01ffc9a7000000000000000000000000000000000000000000000000000000007bffffffffffffffffffffffffffffffffffffffffffffffffffffffff1916827bffffffffffffffffffffffffffffffffffffffffffffffffffffffff1916149050919050565b61244983836127e5565b61245660008484846125b3565b612495576040517f08c379a000000000000000000000000000000000000000000000000000000000815260040161248c9061384d565b60405180910390fd5b505050565b6124a583838361195e565b600073ffffffffffffffffffffffffffffffffffffffff168373ffffffffffffffffffffffffffffffffffffffff1614156124e8576124e3816129bf565b612527565b8173ffffffffffffffffffffffffffffffffffffffff168373ffffffffffffffffffffffffffffffffffffffff1614612526576125258382612a08565b5b5b600073ffffffffffffffffffffffffffffffffffffffff168273ffffffffffffffffffffffffffffffffffffffff16141561256a5761256581612b75565b6125a9565b8273ffffffffffffffffffffffffffffffffffffffff168273ffffffffffffffffffffffffffffffffffffffff16146125a8576125a78282612cb8565b5b5b505050565b505050565b60006125d48473ffffffffffffffffffffffffffffffffffffffff1661193b565b1561273d578373ffffffffffffffffffffffffffffffffffffffff1663150b7a026125fd611ab1565b8786866040518563ffffffff1660e01b815260040161261f9493929190613789565b602060405180830381600087803b15801561263957600080fd5b505af192505050801561266a57506040513d601f19601f8201168201806040525081019061266791906131b2565b60015b6126ed573d806000811461269a576040519150601f19603f3d011682016040523d82523d6000602084013e61269f565b606091505b506000815114156126e5576040517f08c379a00000000000000000000000000000000000000000000000000000000081526004016126dc9061384d565b60405180910390fd5b805181602001fd5b63150b7a0260e01b7bffffffffffffffffffffffffffffffffffffffffffffffffffffffff1916817bffffffffffffffffffffffffffffffffffffffffffffffffffffffff191614915050612742565b600190505b949350505050565b60008082905060005b84518110156127da576000858281518110612797577f4e487b7100000000000000000000000000000000000000000000000000000000600052603260045260246000fd5b602002602001015190508083116127b9576127b28382612d37565b92506127c6565b6127c38184612d37565b92505b5080806127d290613e3b565b915050612753565b508091505092915050565b600073ffffffffffffffffffffffffffffffffffffffff168273ffffffffffffffffffffffffffffffffffffffff161415612855576040517f08c379a000000000000000000000000000000000000000000000000000000000815260040161284c90613a0d565b60405180910390fd5b61285e81611a45565b1561289e576040517f08c379a0000000000000000000000000000000000000000000000000000000008152600401612895906138ad565b60405180910390fd5b6128aa6000838361249a565b6001600360008473ffffffffffffffffffffffffffffffffffffffff1673ffffffffffffffffffffffffffffffffffffffff16815260200190815260200160002060008282546128fa9190613c5d565b92505081905550816002600083815260200190815260200160002060006101000a81548173ffffffffffffffffffffffffffffffffffffffff021916908373ffffffffffffffffffffffffffffffffffffffff160217905550808273ffffffffffffffffffffffffffffffffffffffff16600073ffffffffffffffffffffffffffffffffffffffff167fddf252ad1be2c89b69c2b068fc378daa952ba7f163c4a11628f55a4df523b3ef60405160405180910390a46129bb600083836125ae565b5050565b6008805490506009600083815260200190815260200160002081905550600881908060018154018082558091505060019003906000526020600020016000909190919091505550565b60006001612a158461118e565b612a1f9190613ce4565b9050600060076000848152602001908152602001600020549050818114612b04576000600660008673ffffffffffffffffffffffffffffffffffffffff1673ffffffffffffffffffffffffffffffffffffffff168152602001908152602001600020600084815260200190815260200160002054905080600660008773ffffffffffffffffffffffffffffffffffffffff1673ffffffffffffffffffffffffffffffffffffffff168152602001908152602001600020600084815260200190815260200160002081905550816007600083815260200190815260200160002081905550505b6007600084815260200190815260200160002060009055600660008573ffffffffffffffffffffffffffffffffffffffff1673ffffffffffffffffffffffffffffffffffffffff16815260200190815260200160002060008381526020019081526020016000206000905550505050565b60006001600880549050612b899190613ce4565b9050600060096000848152602001908152602001600020549050600060088381548110612bdf577f4e487b7100000000000000000000000000000000000000000000000000000000600052603260045260246000fd5b906000526020600020015490508060088381548110612c27577f4e487b7100000000000000000000000000000000000000000000000000000000600052603260045260246000fd5b906000526020600020018190555081600960008381526020019081526020016000208190555060096000858152602001908152602001600020600090556008805480612c9c577f4e487b7100000000000000000000000000000000000000000000000000000000600052603160045260246000fd5b6001900381819060005260206000200160009055905550505050565b6000612cc38361118e565b905081600660008573ffffffffffffffffffffffffffffffffffffffff1673ffffffffffffffffffffffffffffffffffffffff168152602001908152602001600020600083815260200190815260200160002081905550806007600084815260200190815260200160002081905550505050565b600082600052816020526040600020905092915050565b828054612d5a90613dd8565b90600052602060002090601f016020900481019282612d7c5760008555612dc3565b82601f10612d9557805160ff1916838001178555612dc3565b82800160010185558215612dc3579182015b82811115612dc2578251825591602001919060010190612da7565b5b509050612dd09190612dd4565b5090565b5b80821115612ded576000816000905550600101612dd5565b5090565b6000612e04612dff84613bad565b613b88565b905082815260208101848484011115612e1c57600080fd5b612e27848285613d96565b509392505050565b6000612e42612e3d84613bde565b613b88565b905082815260208101848484011115612e5a57600080fd5b612e65848285613d96565b509392505050565b600081359050612e7c81614669565b92915050565b60008083601f840112612e9457600080fd5b8235905067ffffffffffffffff811115612ead57600080fd5b602083019150836020820283011115612ec557600080fd5b9250929050565b600081359050612edb81614680565b92915050565b600081359050612ef081614697565b92915050565b600081519050612f0581614697565b92915050565b600082601f830112612f1c57600080fd5b8135612f2c848260208601612df1565b91505092915050565b600082601f830112612f4657600080fd5b8135612f56848260208601612e2f565b91505092915050565b600081359050612f6e816146ae565b92915050565b600060208284031215612f8657600080fd5b6000612f9484828501612e6d565b91505092915050565b60008060408385031215612fb057600080fd5b6000612fbe85828601612e6d565b9250506020612fcf85828601612e6d565b9150509250929050565b600080600060608486031215612fee57600080fd5b6000612ffc86828701612e6d565b935050602061300d86828701612e6d565b925050604061301e86828701612f5f565b9150509250925092565b6000806000806080858703121561303e57600080fd5b600061304c87828801612e6d565b945050602061305d87828801612e6d565b935050604061306e87828801612f5f565b925050606085013567ffffffffffffffff81111561308b57600080fd5b61309787828801612f0b565b91505092959194509250565b600080604083850312156130b657600080fd5b60006130c485828601612e6d565b92505060206130d585828601612ecc565b9150509250929050565b600080604083850312156130f257600080fd5b600061310085828601612e6d565b925050602061311185828601612f5f565b9150509250929050565b6000806020838503121561312e57600080fd5b600083013567ffffffffffffffff81111561314857600080fd5b61315485828601612e82565b92509250509250929050565b60006020828403121561317257600080fd5b600061318084828501612ecc565b91505092915050565b60006020828403121561319b57600080fd5b60006131a984828501612ee1565b91505092915050565b6000602082840312156131c457600080fd5b60006131d284828501612ef6565b91505092915050565b6000602082840312156131ed57600080fd5b600082013567ffffffffffffffff81111561320757600080fd5b61321384828501612f35565b91505092915050565b60006020828403121561322e57600080fd5b600061323c84828501612f5f565b91505092915050565b61324e81613d18565b82525050565b61326561326082613d18565b613e84565b82525050565b61327481613d2a565b82525050565b61328381613d36565b82525050565b600061329482613c0f565b61329e8185613c25565b93506132ae818560208601613da5565b6132b781613f95565b840191505092915050565b60006132cd82613c1a565b6132d78185613c41565b93506132e7818560208601613da5565b6132f081613f95565b840191505092915050565b600061330682613c1a565b6133108185613c52565b9350613320818560208601613da5565b80840191505092915050565b6000613339602b83613c41565b915061334482613fb3565b604082019050919050565b600061335c603283613c41565b915061336782614002565b604082019050919050565b600061337f602683613c41565b915061338a82614051565b604082019050919050565b60006133a2602583613c41565b91506133ad826140a0565b604082019050919050565b60006133c5601c83613c41565b91506133d0826140ef565b602082019050919050565b60006133e8601983613c41565b91506133f382614118565b602082019050919050565b600061340b601483613c41565b915061341682614141565b602082019050919050565b600061342e602483613c41565b91506134398261416a565b604082019050919050565b6000613451601983613c41565b915061345c826141b9565b602082019050919050565b6000613474602b83613c41565b915061347f826141e2565b604082019050919050565b6000613497602c83613c41565b91506134a282614231565b604082019050919050565b60006134ba602583613c41565b91506134c582614280565b604082019050919050565b60006134dd603883613c41565b91506134e8826142cf565b604082019050919050565b6000613500602a83613c41565b915061350b8261431e565b604082019050919050565b6000613523602983613c41565b915061352e8261436d565b604082019050919050565b6000613546602083613c41565b9150613551826143bc565b602082019050919050565b6000613569601783613c41565b9150613574826143e5565b602082019050919050565b600061358c602c83613c41565b91506135978261440e565b604082019050919050565b60006135af600583613c52565b91506135ba8261445d565b600582019050919050565b60006135d2602083613c41565b91506135dd82614486565b602082019050919050565b60006135f5602f83613c41565b9150613600826144af565b604082019050919050565b6000613618601983613c41565b9150613623826144fe565b602082019050919050565b600061363b602183613c41565b915061364682614527565b604082019050919050565b600061365e600083613c36565b915061366982614576565b600082019050919050565b6000613681603183613c41565b915061368c82614579565b604082019050919050565b60006136a4602c83613c41565b91506136af826145c8565b604082019050919050565b60006136c7601f83613c41565b91506136d282614617565b602082019050919050565b60006136ea601983613c41565b91506136f582614640565b602082019050919050565b61370981613d8c565b82525050565b600061371b8284613254565b60148201915081905092915050565b600061373682856132fb565b915061374282846132fb565b915061374d826135a2565b91508190509392505050565b600061376482613651565b9150819050919050565b60006020820190506137836000830184613245565b92915050565b600060808201905061379e6000830187613245565b6137ab6020830186613245565b6137b86040830185613700565b81810360608301526137ca8184613289565b905095945050505050565b60006020820190506137ea600083018461326b565b92915050565b6000602082019050613805600083018461327a565b92915050565b6000602082019050818103600083015261382581846132c2565b905092915050565b600060208201905081810360008301526138468161332c565b9050919050565b600060208201905081810360008301526138668161334f565b9050919050565b6000602082019050818103600083015261388681613372565b9050919050565b600060208201905081810360008301526138a681613395565b9050919050565b600060208201905081810360008301526138c6816133b8565b9050919050565b600060208201905081810360008301526138e6816133db565b9050919050565b60006020820190508181036000830152613906816133fe565b9050919050565b6000602082019050818103600083015261392681613421565b9050919050565b6000602082019050818103600083015261394681613444565b9050919050565b6000602082019050818103600083015261396681613467565b9050919050565b600060208201905081810360008301526139868161348a565b9050919050565b600060208201905081810360008301526139a6816134ad565b9050919050565b600060208201905081810360008301526139c6816134d0565b9050919050565b600060208201905081810360008301526139e6816134f3565b9050919050565b60006020820190508181036000830152613a0681613516565b9050919050565b60006020820190508181036000830152613a2681613539565b9050919050565b60006020820190508181036000830152613a468161355c565b9050919050565b60006020820190508181036000830152613a668161357f565b9050919050565b60006020820190508181036000830152613a86816135c5565b9050919050565b60006020820190508181036000830152613aa6816135e8565b9050919050565b60006020820190508181036000830152613ac68161360b565b9050919050565b60006020820190508181036000830152613ae68161362e565b9050919050565b60006020820190508181036000830152613b0681613674565b9050919050565b60006020820190508181036000830152613b2681613697565b9050919050565b60006020820190508181036000830152613b46816136ba565b9050919050565b60006020820190508181036000830152613b66816136dd565b9050919050565b6000602082019050613b826000830184613700565b92915050565b6000613b92613ba3565b9050613b9e8282613e0a565b919050565b6000604051905090565b600067ffffffffffffffff821115613bc857613bc7613f66565b5b613bd182613f95565b9050602081019050919050565b600067ffffffffffffffff821115613bf957613bf8613f66565b5b613c0282613f95565b9050602081019050919050565b600081519050919050565b600081519050919050565b600082825260208201905092915050565b600081905092915050565b600082825260208201905092915050565b600081905092915050565b6000613c6882613d8c565b9150613c7383613d8c565b9250827fffffffffffffffffffffffffffffffffffffffffffffffffffffffffffffffff03821115613ca857613ca7613ed9565b5b828201905092915050565b6000613cbe82613d8c565b9150613cc983613d8c565b925082613cd957613cd8613f08565b5b828204905092915050565b6000613cef82613d8c565b9150613cfa83613d8c565b925082821015613d0d57613d0c613ed9565b5b828203905092915050565b6000613d2382613d6c565b9050919050565b60008115159050919050565b6000819050919050565b60007fffffffff0000000000000000000000000000000000000000000000000000000082169050919050565b600073ffffffffffffffffffffffffffffffffffffffff82169050919050565b6000819050919050565b82818337600083830152505050565b60005b83811015613dc3578082015181840152602081019050613da8565b83811115613dd2576000848401525b50505050565b60006002820490506001821680613df057607f821691505b60208210811415613e0457613e03613f37565b5b50919050565b613e1382613f95565b810181811067ffffffffffffffff82111715613e3257613e31613f66565b5b80604052505050565b6000613e4682613d8c565b91507fffffffffffffffffffffffffffffffffffffffffffffffffffffffffffffffff821415613e7957613e78613ed9565b5b600182019050919050565b6000613e8f82613e96565b9050919050565b6000613ea182613fa6565b9050919050565b6000613eb382613d8c565b9150613ebe83613d8c565b925082613ece57613ecd613f08565b5b828206905092915050565b7f4e487b7100000000000000000000000000000000000000000000000000000000600052601160045260246000fd5b7f4e487b7100000000000000000000000000000000000000000000000000000000600052601260045260246000fd5b7f4e487b7100000000000000000000000000000000000000000000000000000000600052602260045260246000fd5b7f4e487b7100000000000000000000000000000000000000000000000000000000600052604160045260246000fd5b6000601f19601f8301169050919050565b60008160601b9050919050565b7f455243373231456e756d657261626c653a206f776e657220696e646578206f7560008201527f74206f6620626f756e6473000000000000000000000000000000000000000000602082015250565b7f4552433732313a207472616e7366657220746f206e6f6e20455243373231526560008201527f63656976657220696d706c656d656e7465720000000000000000000000000000602082015250565b7f4f776e61626c653a206e6577206f776e657220697320746865207a65726f206160008201527f6464726573730000000000000000000000000000000000000000000000000000602082015250565b7f4552433732313a207472616e736665722066726f6d20696e636f72726563742060008201527f6f776e6572000000000000000000000000000000000000000000000000000000602082015250565b7f4552433732313a20746f6b656e20616c7265616479206d696e74656400000000600082015250565b7f496e76616c696420457468657220616d6f756e742073656e7400000000000000600082015250565b7f4661696c656420746f2073656e64204574686572000000000000000000000000600082015250565b7f4552433732313a207472616e7366657220746f20746865207a65726f2061646460008201527f7265737300000000000000000000000000000000000000000000000000000000602082015250565b7f4552433732313a20617070726f766520746f2063616c6c657200000000000000600082015250565b7f43616e6e6f74206d696e74206d6f7265207468616e2032204e4654732064757260008201527f696e672070726573616c65000000000000000000000000000000000000000000602082015250565b7f4552433732313a206f70657261746f7220717565727920666f72206e6f6e657860008201527f697374656e7420746f6b656e0000000000000000000000000000000000000000602082015250565b7f4578636565646564206d6178696d756d2045616765722042656176657273207360008201527f7570706c79000000000000000000000000000000000000000000000000000000602082015250565b7f4552433732313a20617070726f76652063616c6c6572206973206e6f74206f7760008201527f6e6572206e6f7220617070726f76656420666f7220616c6c0000000000000000602082015250565b7f4552433732313a2062616c616e636520717565727920666f7220746865207a6560008201527f726f206164647265737300000000000000000000000000000000000000000000602082015250565b7f4552433732313a206f776e657220717565727920666f72206e6f6e657869737460008201527f656e7420746f6b656e0000000000000000000000000000000000000000000000602082015250565b7f4552433732313a206d696e7420746f20746865207a65726f2061646472657373600082015250565b7f596f7520617265206e6f742077686974656c6973746564000000000000000000600082015250565b7f4552433732313a20617070726f76656420717565727920666f72206e6f6e657860008201527f697374656e7420746f6b656e0000000000000000000000000000000000000000602082015250565b7f2e6a736f6e000000000000000000000000000000000000000000000000000000600082015250565b7f4f776e61626c653a2063616c6c6572206973206e6f7420746865206f776e6572600082015250565b7f4552433732314d657461646174613a2055524920717565727920666f72206e6f60008201527f6e6578697374656e7420746f6b656e0000000000000000000000000000000000602082015250565b7f436f6e74726163742063757272656e746c792070617573656400000000000000600082015250565b7f4552433732313a20617070726f76616c20746f2063757272656e74206f776e6560008201527f7200000000000000000000000000000000000000000000000000000000000000602082015250565b50565b7f4552433732313a207472616e736665722063616c6c6572206973206e6f74206f60008201527f776e6572206e6f7220617070726f766564000000000000000000000000000000602082015250565b7f455243373231456e756d657261626c653a20676c6f62616c20696e646578206f60008201527f7574206f6620626f756e64730000000000000000000000000000000000000000602082015250565b7f4e465473206861766520616c7265616479206265656e2072657665616c656400600082015250565b7f50726573616c6520686173206e6f7420656e6465642079657400000000000000600082015250565b61467281613d18565b811461467d57600080fd5b50565b61468981613d2a565b811461469457600080fd5b50565b6146a081613d40565b81146146ab57600080fd5b50565b6146b781613d8c565b81146146c257600080fd5b5056fea2646970667358221220fa28718fd21ef60caf54ad6476e68dc771414e99dc04879fbc082cecf29c18ad64736f6c6343000804003368747470733a2f2f65622e6d7970696e6174612e636c6f75642f697066732f516d5271774d6f414172576d72436a7251594a4a365436743564476b58614e4d7247614e6879624e42477879676f2f4542303332325f68696464656e2e6a736f6e",
  "linkReferences": {},
  "deployedLinkReferences": {}
}